:1000000049C0BBC162C061C060C05FC05EC05DC0AE
:100010005CC05BC05AC059C058C057C056C055C01C
:1000200054C053C052C0040309041A0354006900A9
:100030006C006C00200048006100720062006100EA
:1000400075006D0024034C0043004400320055004D
:1000500053004200200049006E00740065007200E9
:10006000660061006300650012011001FF000008D6
:10007000030430C60901010200010902190001014F
:1000800000A025090400000100000000070581030D
:1000900008000A0011241FBECFE5D4E0DEBFCDBFAB
:1000A00010E0A0E6B0E0E2E9FAE002C005900D92AF
:1000B000A038B107D9F710E0A0E8B0E001C01D9268
:1000C000AC3BB107E1F769D3E2C49ACF85B783604F
:1000D00085BF8BB780648BBF8BE4809392008AE5E9
:1000E0008093910008951F93CF93DF939091A20086
:1000F000935097FD09C020919F0080919E008D3202
:1001000009F44FC01092A2008091600084FF3BC0B0
:10011000109161001F3FB9F1193008F46FC01850F9
:10012000109361008091860098E88927809386006B
:1001300018E02091A0003091A1008091800086FFFE
:1001400073C0A7E8B0E080E090E0F901E80FF91F84
:10015000E491ED9301961817C1F71150812F90E0AB
:100160001F5F0196820F931F9093A1008093A000C0
:1001700087E890E0612FFDD0612F6C5F6C3009F053
:100180004DC06093600094E183B3837031F491506B
:10019000D9F71092A30010929D00DF91CF911F918B
:1001A0000895983009F0AECFCCE0D0E0C21BD10961
:1001B000CA55DF4F83EC809386008AE58093600008
:1001C0001092800088818076C1F59A8110928F000C
:1001D00089818823B1F51092900022E08FE890E0A9
:1001E0009093A1008093A0008F81882321F48E81B9
:1001F000821708F4282F2093610084CF10926100A9
:100200008091860098E8892780938600112309F061
:1002100090CF87E890E060E0ACD064E08FEF80930F
:10022000610060936000AFCF912FD901E7E8F0E063
:100230008D9181939150E1F790CFCE01FAD1282F83
:10024000D3CF853089F08630A9F0883049F18930E4
:1002500079F18A3049F18B3019F48BE48093920064
:1002600020E08FE890E0BCCF9093A30020E08FE8DF
:1002700090E0B6CF8B81813049F18230F9F0833044
:1002800029F020E080E480938000AECF992331F5FF
:1002900086E290E09093A1008093A00024E0F2CF4A
:1002A00021E085EA90E09CCF21E08FE890E098CFB4
:1002B0009093A50020E08FE890E092CF8AE790E04D
:1002C0009093A1008093A00029E1DCCF88E690E024
:1002D0009093A1008093A00022E1D4CF913051F0FF
:1002E000923079F684E490E09093A1008093A0008E
:1002F00024E2C8CF8AE290E09093A1008093A0000E
:100300002AE1C0CF1F93DC01162F8091910084FF5A
:1003100017C08091920098E8892780939200912FCE
:10032000E3E9F0E08D91819391501916DCF383E9B4
:1003300090E0612F1ED01C5F109391001F910895D3
:100340008AE580939100EBCFA82FB92F80E090E051
:1003500041E050EA609530E009C02D9182279795E1
:10036000879510F084279527305EC8F36F5FA8F358
:100370000895EADF8D939D930895CF93CFB7CF93E0
:10038000C395989BE9F7989B09C0989B07C0989BD9
:1003900005C0989B03C0989B01C0A3C0DF93C09188
:1003A0009F00DD27CA55DF4F989B02C0DF91EBCF3E
:1003B0002F930F931F9303B32FEF00FB20F94F935D
:1003C0003F9313B34FEF012700FB21F93BE031C00E
:1003D0004E7F012F13B3216028C0102F4D7F226064
:1003E000000003B329C04B7F2460012F000013B32A
:1003F0002BC013B3477F28602AC04F7E03B3206110
:100400002CC04F7D13B320622FC04F7B03B32064F9
:1004100032C0422703B349934FEF0000102710FB6F
:1004200020F913B31370C9F1297F91F2012700FB62
:1004300021F903B3237F89F2315058F1102710FBC3
:1004400022F913B3277E79F2012700FB23F92F7CD1
:1004500081F203B3102710FB24F92F7971F200C049
:1004600013B3012700FB25F92F7359F200C003B322
:10047000102710FB26F9223040F200C013B30127E9
:1004800000FB27F9243028F64F77206813B30000CB
:10049000F9CF10E41ABF002719C03B503195C31B98
:1004A000D04010E41ABF0881033CF9F00B34E9F0A6
:1004B00020919D001981110F1213EDCF4A81441F25
:1004C000093641F10D3211F0013E29F70093A400E5
:1004D0003F914F911F910F912F91DF91CAB7C6FDA8
:1004E0004FCFCF91CFBFCF9118952091A400222359
:1004F00079F31091A200112369F534306AF1309339
:10050000A20020939E0010919F003BE0311B30938E
:100510009F0022C00091A2000130E4F40AE54F7070
:1005200049F43091600034FD19C000936000C6E8C2
:10053000D0E018C03091910034FD10C000939100BC
:10054000C2E9D0E00FC02795A8F45150A9F4220FBA
:100550000000F9CF4AE503C042ED01C0432FC4E1DA
:10056000D0E032E014B31360A89A14BB05B320E4C2
:1005700013E05F93012756E005BB279520F4515007
:1005800021F4220FF9CF012756E000003B5A05BBAA
:10059000D0F2279528F4515029F4220F0000F9CF0A
:1005A000012756E0279505BB20F4515021F4220F76
:1005B000F9CF012756E02991332305BB21F60C7FA3
:1005C0001091A300110FC651D04005BB11F010933C
:1005D0009D0010E41ABF016014B31C7F402F4C7FB4
:1005E0005F9100C000C005BB14BB45BB71CF1F931A
:1005F000182F82E090E036D2811721F082E090E05F
:10060000612F38D2812F90E099BD88BD1F91089548
:100610001F93182F81E090E025D2811721F081E00F
:1006200090E0612F27D2812F90E09BBD8ABD1F9162
:100630000895FF920F931F93CF93DF93FC0182E8FD
:1006400090E09093A1008093A0008181182F1370F7
:100650001F5F869586958695982F937086958695CB
:100660008230D1F1833060F0833009F444C08430AB
:1006700039F180E0DF91CF911F910F91FF900895A4
:10068000882389F08130A9F700918100092389F33B
:10069000FE2EEF01802F6A8168D121969E012F19CD
:1006A0002117C0F3E6CF82818093820083818093FB
:1006B000830082E0DF91CF911F910F91FF90089509
:1006C000913089F1913020F581E08093820089E0BA
:1006D0008093830082E0CECF00918100092349F20C
:1006E000FE2EEF01802F6A814CD121969E012F1999
:1006F0002117C0F3BECF992321F4828189DF80E0E6
:10070000B9CF913009F0B5CF828171DF80E0B2CFEF
:10071000923009F0AECF80918100809382001092D8
:10072000830082E0A7CF83B3B0990DC092E0829599
:100730008695877080958170982B90938200109297
:10074000830082E097CF90E0F2CF80E090E08AD102
:10075000823461F080E090E062E48CD181E090E04E
:1007600060EA88D182E090E06FEF84D187B3866041
:1007700087BB81EE8FBD89E08EBD89B7837C89BF41
:1007800081E090E06FD190E09BBD8ABD82E090E077
:1007900069D190E099BD88BD08952EE088E190E090
:1007A0000FB6F894A89581BD0FBE21BD88EF81BB1F
:1007B00012BA15BA8FEF84BB80E49CE90197F1F778
:1007C0008CEF84BB83DCC1DFA598AD9AB898C09A42
:1007D00081E0F8D0882329F08091810081608093A6
:1007E000810082E0EFD0882381F0809181008260D7
:1007F0008093810080FD17C081FD0EC0837083301F
:1008000039F07894A8956FDCFDCF80918100F2CF0C
:1008100069E770E0C5D0F5CF82E060E770E0C0D056
:1008200080918100EBCF81E062E670E0B9D08091E9
:100830008100E2CF90E0AC014170507080FDAB9A36
:100840009C012270307081FDAC9A00C0452B09F0EC
:10085000AB98232B09F0AC980895FF920F931F9348
:10086000F82E062F4423C9F49398AA9881B3806F79
:1008700081BB12B31F70802F807F812B82BB8F2D95
:10088000D9DF0295007F012B02BB8F2DD3DF106FC4
:1008900012BB1F910F91FF900895939AE6CF982F66
:1008A000662309F434C0939AAA9A81B38F7081BBEE
:1008B00082B3806F82BB892F90E0AC014170507091
:1008C00080FDAB9A9C012270307081FDAC9A00C013
:1008D00090B34115510509F0AB982115310509F088
:1008E000AC9800C04115510509F0AB9A21153105AE
:1008F00009F0AC9A00C080B3452B09F0AB98232BCC
:1009000009F0AC98907F82958F70892B0895939809
:10091000CBCFEF92FF921F93CF93DF9390E021E034
:10092000E22EF12CE822F922EC01C270D070E11421
:10093000F10499F410E0209741F41123C1F7DF91FD
:10094000CF911F91FF90EF90089582E060E0A7DFC4
:1009500087FFF3CFE114F10469F381E060E09FDFEA
:10096000182F111F1127111FE6CF0F931F93182F58
:10097000062FCFDF812F602F40E06FDF1F910F9197
:1009800008950F931F93182F062FC3DF812F602F19
:1009900041E063DF1F910F91089561E0E6DF089564
:1009A0001F93CF93DF93182FEB016881662331F0FB
:1009B0002196812FE6DF68816623D1F7DF91CF9101
:1009C0001F9108951F93CF93DF93182F81B3806FEA
:1009D00081BB8B9AA29AA39AA49A80E89BEB019779
:1009E000F1F782B38F70806382BB812F23DF80E8B1
:1009F0009AE30197F1F7812F1DDFC0ECD0E0CE0123
:100A00000197F1F7812F16DFCE010197F1F7919849
:100A1000812F10DFCE010197F1F7812F60E03FDFDA
:100A200087FD1BC0812F68E2A0DFCE010197F1F79F
:100A3000812F60E034DF87FD10C0812F68E095DFF3
:100A4000812FABDF812F66E090DF812F6CE08DDF9F
:100A500081E0DF91CF911F91089580E0DF91CF91E8
:100A60001F910895E199FECF9FBB8EBBE09A992715
:100A70008DB30895262FE199FECF9FBB8EBB2DBB72
:100A80000FB6F894E29AE19A0FBE01960895F89491
:020A9000FFCF96
:100A92005AFF4C4344325553422056312E303900CE
:100AA200326E64206374726C0020626F746821007D
:00000001FF
